:100000000C945D000C9485000C9485000C94850084
:100010000C9485000C9485000C9485000C9485004C
:100020000C9485000C9485000C9485000C9485003C
:100030000C9485000C9485000C9485000C9485002C
:100040000C9435040C9485000C94A5040C947F0446
:100050000C9485000C9485000C9485000C9485000C
:100060000C9485000C94850000000008000201003B
:100070000003040700000000000000000000000072
:10008000250028002B0000000000240027002A0083
:10009000040404040404040402020202020203032E
:1000A0000303030301020408102040800102040836
:1000B0001020010204081020970511241FBECFEF65
:1000C000D8E0DEBFCDBF11E0A0E0B1E0E6EEFBE09E
:1000D00002C005900D92A63AB107D9F722E0A6EA30
:1000E000B1E001C01D92AE35B207E1F710E0CDE5F9
:1000F000D0E004C02197FE010E94E605CC35D1076F
:10010000C9F70E94D7040C94F1050C94000090E00C
:10011000FC01EC55FF4F2491FC01E057FF4F849107
:10012000882399F090E0880F991FFC01EA57FF4F50
:10013000A591B491FC01E458FF4F859194918FB73C
:10014000F894EC91E22BEC938FBF089590E0FC01C2
:10015000E859FF4F2491FC01EC55FF4F3491FC010D
:10016000E057FF4FE491EE2309F43CC0222339F11C
:10017000233091F038F42130A9F0223001F584B514
:100180008F7D12C0273091F02830A1F02430B9F4CF
:10019000809180008F7D03C0809180008F77809355
:1001A00080000DC084B58F7784BD09C08091B000F8
:1001B0008F7703C08091B0008F7D8093B000F0E016
:1001C000EE0FFF1FE458FF4FA591B4919FB7F8942D
:1001D000611104C08C913095382302C0EC913E2B04
:1001E0003C939FBF08953FB7F8948091BD019091D3
:1001F000BE01A091BF01B091C00126B5A89B05C06A
:100200002F3F19F00196A11DB11D3FBFBA2FA92F95
:10021000982F8827820F911DA11DB11DBC01CD0112
:1002200042E0660F771F881F991F4A95D1F70895FE
:100230008F929F92AF92BF92CF92DF92EF92FF92F6
:100240006B017C010E94F3004B015C01C114D104DD
:10025000E104F104F1F00E94F300DC01CB01881904
:100260009909AA09BB09883E9340A105B10570F31D
:1002700021E0C21AD108E108F10888EE880E83E077
:10028000981EA11CB11CC114D104E104F10419F79A
:10029000DDCFFF90EF90DF90CF90BF90AF909F9019
:1002A0008F900895CF92DF92EF92FF920F931F935A
:1002B000CF93DF936C017A018B01C0E0D0E0CE15C3
:1002C000DF0581F0D8016D918D01D601ED91FC9192
:1002D0000190F081E02DC6010995892B11F021963E
:1002E000EECF7E01C701DF91CF911F910F91FF905B
:1002F000EF90DF90CF900895089580E090E008950A
:10030000FC01538D448D252F30E0842F90E0821B1B
:10031000930B541710F0CF96089501970895FC01A0
:10032000918D828D981761F0828DDF01A80FB11D2C
:100330005D968C91928D9F5F9F73928F90E0089550
:100340008FEF9FEF0895FC01918D828D981731F00A
:10035000828DE80FF11D858D90E008958FEF9FEF5E
:100360000895FC01918D228D892F90E0805C9F4F34
:10037000821B91098F739927089581EC91E00E9467
:10038000B10121E0892B09F420E0822F0895FC01BE
:10039000848DDF01A80FB11DA35ABF4F2C91848D0E
:1003A00090E001968F739927848FA689B7892C9343
:1003B000A089B1898C91837080648C93938D848D96
:1003C000981306C00288F389E02D80818F7D808399
:1003D0000895EF92FF920F931F93CF93DF93EC0159
:1003E00081E0888F9B8D8C8D981305C0E889F989F1
:1003F000808185FD26C0F62E0B8D10E00F5F1F4F0C
:100400000F731127E02E8C8DE8120CC00FB607FC7D
:10041000FACFE889F989808185FFF5CFCE010E9466
:10042000C701F1CF8B8DFE01E80FF11DE35AFF4F9D
:10043000F0829FB7F8940B8FEA89FB8980818062F4
:100440000AC09FB7F894EE89FF896083E889F9892B
:1004500080818370806480839FBF81E090E0DF9122
:10046000CF911F910F91FF90EF900895CF93DF935D
:10047000EC01888D8823C9F0EA89FB89808185FD9C
:1004800005C0A889B9898C9186FD0FC00FB607FCFD
:10049000F5CF808185FFF2CFA889B9898C9185FF3E
:1004A000EDCFCE010E94C701E7CFDF91CF91089534
:1004B0008FB7F8948091B6018FBF08950F931F9363
:1004C000CF93DF93082FC8E0D0E010E8802F81237E
:1004D00011F061E301C060E381EC91E00E94E90169
:1004E0001695219799F7DF91CF911F910F9108955C
:1004F0008EBD00000DB407FEFDCF8EB508958CBDF6
:100500009DBD0895009769F0FC0101900020E9F776
:100510003197AF01481B590BBC0181EC91E00C9461
:10052000520180E090E008950C9482028F929F9295
:10053000AF92BF920F931F93CF93DF93CDB7DEB7E8
:10054000A1970FB6F894DEBF0FBECDBF19A24230FF
:1005500008F44AE08E010F5D1F4F842E912CA12CD0
:10056000B12CA50194010E94C405E62FB901CA016E
:1005700001501109EA3014F4E05D01C0E95CD801D2
:10058000EC93232B242B252B61F7C8010E948202B8
:10059000A1960FB6F894DEBF0FBECDBFDF91CF910D
:1005A0001F910F91BF90AF909F908F9008950E94E0
:1005B000EC052F923F924F925F926F927F928F92B3
:1005C0009F92AF92BF92CF92DF92EF92FF920F93E2
:1005D0001F93CF93DF93CDB7DEB72DB63EB681EC38
:1005E00091E00E94B101181619060CF020C181ECAF
:1005F00091E00E948F018237C1F0873709F483C0F0
:10060000803369F761E082E00E94A60064E670E052
:1006100080E090E00E94180160E082E00E94A60065
:100620008EE591E00E949402DACF80E491E00E948E
:10063000940200E011E0412C512C320183EA91E058
:100640000E94940280E14816510424F484EA91E067
:100650000E94940240E1C301B2010E94960286E822
:1006600091E00E94940281E590E00E947F0260E0A8
:1006700080E10E94A600842D80680E94780296EA9C
:10068000C92E91E0D92E4601E12CF12CF801A08071
:10069000B180EA14FB0464F480E00E94780290E0E8
:1006A000F401819391934F01FFEFEF1AFF0AEECF10
:1006B00061E080E10E94A600E12CF12CEA14FB0429
:1006C0007CF4F6018081F2E0CF0ED11C0E945E0224
:1006D0008CE591E00E9494028FEFE81AF80AEECFC1
:1006E00084E791E00E9494020E5F1F4F9FEF491A2A
:1006F000590A690A790AE7E14E1651046104710446
:1007000009F09CCF6CCF81EC91E00E948F01F82E14
:100710008DB69EB6E82FEE0FFF0BE050FF4FC08066
:10072000D1808DB79EB78C199D090FB6F8949EBFE6
:100730000FBE8DBF0DB71EB70F5F1F4F5801C5010C
:10074000801B910B8C159D0544F481EC91E00E9477
:100750008F01F50181935F01F2CF4F2C0F2C000C1C
:10076000550866087708F6E1FF1574F486E791E00E
:100770000E94940240E1C301B2010E94960284E704
:1007800091E00E9494024DC089E891E00E94940299
:1007900040E1C301B2010E9496028EE991E00E94FD
:1007A000940281E590E00E947F0260E080E10E9477
:1007B000A6008F2D8F770E94780286EAA82E81E00E
:1007C000B82E7801C701801B910B8C159D050CF587
:1007D000F70171907F01872D0E945E028CE591E008
:1007E0000E949402872D0E94780290E0F501819387
:1007F00091935F0161E088E10E94A6006AE070E0E9
:1008000080E090E00E94180160E088E10E94A6006C
:10081000D9CF84E791E00E94940261E080E10E94D8
:10082000A6000FB6F8949EBE0FBE8DBED8CE0FB6F2
:10083000F8943EBE0FBE2DBEDF91CF911F910F9158
:10084000FF90EF90DF90CF90BF90AF909F908F90F0
:100850007F906F905F904F903F902F9008950E94EF
:10086000BD0181110C94D90208951F920F920FB609
:100870000F9211242F933F938F939F93AF93BF9326
:100880008091B9019091BA01A091BB01B091BC01D6
:100890003091B80123E0230F2D3720F40196A11DDC
:1008A000B11D05C026E8230F0296A11DB11D20939E
:1008B000B8018093B9019093BA01A093BB01B093A2
:1008C000BC018091BD019091BE01A091BF01B0918A
:1008D000C0010196A11DB11D8093BD019093BE0181
:1008E000A093BF01B093C001BF91AF919F918F9131
:1008F0003F912F910F900FBE0F901F9018951F9250
:100900000F920FB60F9211242F933F934F935F9343
:100910006F937F938F939F93AF93BF93EF93FF93C7
:1009200081EC91E00E94C701FF91EF91BF91AF91DF
:100930009F918F917F916F915F914F913F912F91F7
:100940000F900FBE0F901F9018951F920F920FB629
:100950000F9211242F938F939F93EF93FF93E09126
:10096000D101F091D2018081E091D701F091D801BD
:1009700082FD12C090818091DA018F5F8F73209188
:10098000DB01821751F0E091DA01F0E0EF53FE4F06
:10099000958F8093DA0101C08081FF91EF919F9143
:1009A0008F912F910F900FBE0F901F9018957894F4
:1009B00084B5826084BD84B5816084BD85B5826064
:1009C00085BD85B5816085BD80916E008160809315
:1009D0006E0010928100809181008260809381007E
:1009E000809181008160809381008091800081608E
:1009F000809380008091B10084608093B1008091E9
:100A0000B00081608093B00080917A008460809310
:100A10007A0080917A00826080937A0080917A00D7
:100A2000816080937A0080917A00806880937A0058
:100A30001092C100CFB7F8948091B701811124C002
:100A4000EAE9F0E08491EEEAF0E09491E82FF0E03A
:100A5000EE0FFF1FEA57FF4FA591B491EC91E923E8
:100A600021F461E08AE00E94A6008AE00E948700EB
:100A70008CB580618CBD8CB580648CBD8DE00E948E
:100A800087008BE00E9487008091B7018F5F809381
:100A9000B701CFBFE091D101F091D20182E0808314
:100AA000E091CD01F091CE011082E091CF01F09163
:100AB000D0018FEC80831092D901E091D501F091A3
:100AC000D60186E08083E091D301F091D40180814A
:100AD00080618083E091D301F091D40180818860AE
:100AE0008083E091D301F091D4018081806880837C
:100AF000E091D301F091D40180818F7D808380E1EA
:100B00000E94870061E080E10E94A60088E10E94C7
:100B1000870060E088E10E94A60082E00E948700D2
:100B200060E082E00E94A6000E942F04FDCFE1EC6D
:100B3000F1E01382128288EE93E0A0E0B0E08483BB
:100B40009583A683B78382E391E09183808385ECCC
:100B500090E09587848784EC90E09787868780EC87
:100B600090E0918B808B81EC90E0938B828B82EC78
:100B700090E0958B848B86EC90E0978B868B118E22
:100B8000128E138E148E0895A1E21A2EAA1BBB1B7F
:100B9000FD010DC0AA1FBB1FEE1FFF1FA217B30749
:100BA000E407F50720F0A21BB30BE40BF50B661F5F
:100BB000771F881F991F1A9469F760957095809523
:100BC00090959B01AC01BD01CF010895EE0FFF1F71
:100BD0000590F491E02D099481E090E0F8940C9454
:060BE000F105F894FFCFBF
:100BE60004000400040004000400060006000400DB
:100BF60002000400040008000800040008000800C1
:100C060008000800080008000800080004000000AA
:100C16000000E901520180013602B1018F01A301F2
:100C260052656164696E672072656769737465727F
:100C360020636F6E74656E74733A0A002C00446507
:100C46007669636520726573657420636F6D706C79
:100C56006574652E0A00496E76616C69642072655A
:100C66006769737465723A200057726974696E67B2
:100C760020746F20726567697374657220003A206C
:060C860020200A202000DE
:00000001FF
