:1000000010E0A0E6B0E0E6E2F1E003C0C89531966A
:100010000D92A236B107D1F71092C50087E6809302
:10002000C400E0ECF0E080818D7F808386E08093E7
:10003000C20088E18093C10008959091C00095FFAF
:10004000FCCF8093C60008958091C00087FFFCCF4D
:100050008091C60008950E940C008CEF8AB980E25E
:1000600084B9D0E810E4C0E200E188E0F82E94E022
:10007000E92E0E942400E82F87336CF48033CCF300
:10008000E153E63080F40E2E000CFF0BE357FF4FD8
:100090001BB80C948500813621F0823651F72D98DB
:1000A000E8CFC5B9E6CF1BB8E4CF8FE39CE9019751
:1000B000F1F700C00000EBB8DCCF8FE39CE90197BB
:1000C000F1F700C00000FBB8D4CF8FE39CE90197A3
:1000D000F1F700C000000BB9CCCF8FE39CE901978A
:1000E000F1F700C00000CBB9C4CF8FE39CE90197C2
:1000F000F1F700C000001BB9BCCF8FE39CE901976A
:10010000F1F700C00000DBB9B4CFEE0FFF1FC895B8
:100110000F923196C8950F92089555005D006500C5
:060120006D0075007D007A
:020126000A00CD
:00000001FF
