:100000000C9434000C9449000C9449000C94490061
:100010000C9449000C9449000C9449000C9449003C
:100020000C9449000C9449000C9449000C9449002C
:100030000C9449000C9449000C9449000C9449001C
:100040000C9449000C9449000C9449000C9449000C
:100050000C9449000C9449000C9449000C944900FC
:100060000C9449000C94490011241FBECFEFD8E036
:10007000DEBFCDBF11E0A0E0B1E0EEEFF0E002C0E6
:1000800005900D92A631B107D9F70E944B000C9450
:100090007D000C940000CDB7DEB766970FB6F894DC
:1000A000DEBF0FBECDBF1092C50087E48093C400B1
:1000B00086E08093C20088E08093C10086E1E0E0A2
:1000C000F1E0DE01119601900D928A95E1F7FE01B3
:1000D0003196819181110AC02FEF83ED90E3215079
:1000E00080409040E1F700C00000F1CF9091C00047
:0E00F00095FFFCCF8093C600ECCFF894FFCFB5
:1000FE0048656C6C6F2066726F6D2041546D65673C
:06010E006133323870007D
:00000001FF
